{
  "contractName": "Exchange",
  "abi": [
    {
      "inputs": [
        {
          "internalType": "address",
          "name": "_feeAccount",
          "type": "address"
        }
      ],
      "payable": false,
      "stateMutability": "nonpayable",
      "type": "constructor"
    },
    {
      "constant": true,
      "inputs": [],
      "name": "feeAccount",
      "outputs": [
        {
          "internalType": "address",
          "name": "",
          "type": "address"
        }
      ],
      "payable": false,
      "stateMutability": "view",
      "type": "function"
    },
    {
      "constant": true,
      "inputs": [],
      "name": "name",
      "outputs": [
        {
          "internalType": "string",
          "name": "",
          "type": "string"
        }
      ],
      "payable": false,
      "stateMutability": "view",
      "type": "function"
    }
  ],
  "bytecode": "0x60806040526040518060400160405280600f81526020017f5076626c69632045786368616e676500000000000000000000000000000000008152506000908051906020019061004f9291906100d7565b5034801561005c57600080fd5b5060405161038c38038061038c8339818101604052602081101561007f57600080fd5b810190808051906020019092919050505080600160006101000a81548173ffffffffffffffffffffffffffffffffffffffff021916908373ffffffffffffffffffffffffffffffffffffffff1602179055505061017c565b828054600181600116156101000203166002900490600052602060002090601f016020900481019282601f1061011857805160ff1916838001178555610146565b82800160010185558215610146579182015b8281111561014557825182559160200191906001019061012a565b5b5090506101539190610157565b5090565b61017991905b8082111561017557600081600090555060010161015d565b5090565b90565b6102018061018b6000396000f3fe608060405234801561001057600080fd5b50600436106100365760003560e01c806306fdde031461003b57806365e17c9d146100be575b600080fd5b610043610108565b6040518080602001828103825283818151815260200191508051906020019080838360005b83811015610083578082015181840152602081019050610068565b50505050905090810190601f1680156100b05780820380516001836020036101000a031916815260200191505b509250505060405180910390f35b6100c66101a6565b604051808273ffffffffffffffffffffffffffffffffffffffff1673ffffffffffffffffffffffffffffffffffffffff16815260200191505060405180910390f35b60008054600181600116156101000203166002900480601f01602080910402602001604051908101604052809291908181526020018280546001816001161561010002031660029004801561019e5780601f106101735761010080835404028352916020019161019e565b820191906000526020600020905b81548152906001019060200180831161018157829003601f168201915b505050505081565b600160009054906101000a900473ffffffffffffffffffffffffffffffffffffffff168156fea265627a7a72315820806b34b5f4170a2c413c997b2e8ff4d70600d5fee5f379f828faf5f4a89a57f264736f6c63430005100032",
  "source": "pragma solidity ^0.5.0;\r\n\r\n\r\ncontract Exchange {\r\n    string public name = \"Pvblic Exchange\";\r\n\r\n    address public feeAccount;\r\n\r\n    constructor(address _feeAccount) public {\r\n        feeAccount = _feeAccount;\r\n    }\r\n}\r\n\r\n// [ ] Deposit tokens\r\n// [ ] Deposit ether\r\n\r\n// [ ] Withdrawal tokens\r\n// [ ] Withdrawal ether\r\n\r\n// [ ] Make orders\r\n// [ ] Cancel orders\r\n\r\n// [ ] Execute trades\r\n// [ ] Set fee amount\r\n// [ ] Collect fees\r\n",
  "sourcePath": "C:\\Users\\yelle\\Desktop\\eth-traderplatform\\src\\contracts\\Exchange.sol",
  "compiler": {
    "name": "solc",
    "version": "0.5.16+commit.9c3226ce.Emscripten.clang"
  },
  "schemaVersion": "3.2.0",
  "updatedAt": "2020-06-10T16:05:47.619Z",
  "devdoc": {
    "methods": {}
  },
  "userdoc": {
    "methods": {}
  }
}